{
  "_format": "hh-sol-artifact-1",
  "contractName": "Turbine",
  "sourceName": "contracts/turbine/Turbine.sol",
  "abi": [
    {
      "anonymous": false,
      "inputs": [
        {
          "indexed": true,
          "internalType": "address",
          "name": "previousOwner",
          "type": "address"
        },
        {
          "indexed": true,
          "internalType": "address",
          "name": "newOwner",
          "type": "address"
        }
      ],
      "name": "OwnershipTransferred",
      "type": "event"
    },
    {
      "anonymous": false,
      "inputs": [
        {
          "indexed": false,
          "internalType": "address",
          "name": "account",
          "type": "address"
        }
      ],
      "name": "Paused",
      "type": "event"
    },
    {
      "anonymous": false,
      "inputs": [
        {
          "indexed": true,
          "internalType": "address",
          "name": "_recipient",
          "type": "address"
        },
        {
          "indexed": true,
          "internalType": "uint256",
          "name": "_amount",
          "type": "uint256"
        }
      ],
      "name": "TurbineReceived",
      "type": "event"
    },
    {
      "anonymous": false,
      "inputs": [
        {
          "indexed": true,
          "internalType": "address",
          "name": "_recipient",
          "type": "address"
        },
        {
          "indexed": true,
          "internalType": "uint256",
          "name": "_amount",
          "type": "uint256"
        }
      ],
      "name": "TurbineRedeemed",
      "type": "event"
    },
    {
      "anonymous": false,
      "inputs": [
        {
          "indexed": true,
          "internalType": "address",
          "name": "_recipient",
          "type": "address"
        },
        {
          "indexed": true,
          "internalType": "uint256",
          "name": "_silenceAmount",
          "type": "uint256"
        },
        {
          "indexed": true,
          "internalType": "uint256",
          "name": "_usdtAmount",
          "type": "uint256"
        }
      ],
      "name": "TurbineSilenced",
      "type": "event"
    },
    {
      "anonymous": false,
      "inputs": [
        {
          "indexed": false,
          "internalType": "address",
          "name": "account",
          "type": "address"
        }
      ],
      "name": "Unpaused",
      "type": "event"
    },
    {
      "inputs": [],
      "name": "factory",
      "outputs": [
        {
          "internalType": "contract ISwapV2Factory",
          "name": "",
          "type": "address"
        }
      ],
      "stateMutability": "view",
      "type": "function"
    },
    {
      "inputs": [
        {
          "internalType": "address",
          "name": "_receiver",
          "type": "address"
        }
      ],
      "name": "getClaimInfo",
      "outputs": [
        {
          "components": [
            {
              "internalType": "uint256",
              "name": "id",
              "type": "uint256"
            },
            {
              "internalType": "uint256",
              "name": "silenceBalance",
              "type": "uint256"
            },
            {
              "internalType": "uint256",
              "name": "rewardBalance",
              "type": "uint256"
            },
            {
              "internalType": "uint256",
              "name": "lastBlock",
              "type": "uint256"
            }
          ],
          "internalType": "struct Turbine.claimData[]",
          "name": "",
          "type": "tuple[]"
        }
      ],
      "stateMutability": "view",
      "type": "function"
    },
    {
      "inputs": [
        {
          "internalType": "uint256",
          "name": "_tokenAmount",
          "type": "uint256"
        }
      ],
      "name": "getSilenceUSDTAmount",
      "outputs": [
        {
          "internalType": "uint256",
          "name": "usdtAmount",
          "type": "uint256"
        }
      ],
      "stateMutability": "view",
      "type": "function"
    },
    {
      "inputs": [
        {
          "internalType": "address",
          "name": "_receiver",
          "type": "address"
        }
      ],
      "name": "getTurbineBal",
      "outputs": [
        {
          "internalType": "uint256",
          "name": "",
          "type": "uint256"
        }
      ],
      "stateMutability": "view",
      "type": "function"
    },
    {
      "inputs": [
        {
          "internalType": "address",
          "name": "_usdt",
          "type": "address"
        },
        {
          "internalType": "address",
          "name": "_token",
          "type": "address"
        },
        {
          "internalType": "contract ISwapV2Router",
          "name": "_router",
          "type": "address"
        },
        {
          "internalType": "uint256",
          "name": "_vestingTerm",
          "type": "uint256"
        }
      ],
      "name": "initialize",
      "outputs": [],
      "stateMutability": "nonpayable",
      "type": "function"
    },
    {
      "inputs": [
        {
          "internalType": "address",
          "name": "",
          "type": "address"
        }
      ],
      "name": "isPermitted",
      "outputs": [
        {
          "internalType": "bool",
          "name": "",
          "type": "bool"
        }
      ],
      "stateMutability": "view",
      "type": "function"
    },
    {
      "inputs": [],
      "name": "owner",
      "outputs": [
        {
          "internalType": "address",
          "name": "",
          "type": "address"
        }
      ],
      "stateMutability": "view",
      "type": "function"
    },
    {
      "inputs": [],
      "name": "paused",
      "outputs": [
        {
          "internalType": "bool",
          "name": "",
          "type": "bool"
        }
      ],
      "stateMutability": "view",
      "type": "function"
    },
    {
      "inputs": [
        {
          "internalType": "address",
          "name": "_recipient",
          "type": "address"
        },
        {
          "internalType": "uint256",
          "name": "_id",
          "type": "uint256"
        }
      ],
      "name": "percentVestedFor",
      "outputs": [
        {
          "internalType": "bool",
          "name": "isVested_",
          "type": "bool"
        }
      ],
      "stateMutability": "view",
      "type": "function"
    },
    {
      "inputs": [
        {
          "internalType": "address",
          "name": "_recipient",
          "type": "address"
        },
        {
          "internalType": "uint256",
          "name": "_turbineAmount",
          "type": "uint256"
        }
      ],
      "name": "receiveTurbine",
      "outputs": [
        {
          "internalType": "bool",
          "name": "",
          "type": "bool"
        }
      ],
      "stateMutability": "nonpayable",
      "type": "function"
    },
    {
      "inputs": [
        {
          "internalType": "address",
          "name": "_recipient",
          "type": "address"
        },
        {
          "internalType": "uint256",
          "name": "_id",
          "type": "uint256"
        }
      ],
      "name": "redeemSilence",
      "outputs": [],
      "stateMutability": "nonpayable",
      "type": "function"
    },
    {
      "inputs": [],
      "name": "renounceOwnership",
      "outputs": [],
      "stateMutability": "nonpayable",
      "type": "function"
    },
    {
      "inputs": [],
      "name": "router",
      "outputs": [
        {
          "internalType": "contract ISwapV2Router",
          "name": "",
          "type": "address"
        }
      ],
      "stateMutability": "view",
      "type": "function"
    },
    {
      "inputs": [],
      "name": "setContact",
      "outputs": [],
      "stateMutability": "nonpayable",
      "type": "function"
    },
    {
      "inputs": [
        {
          "internalType": "address",
          "name": "_recipient",
          "type": "address"
        },
        {
          "internalType": "uint256",
          "name": "_usdtAmount",
          "type": "uint256"
        },
        {
          "internalType": "uint256",
          "name": "deadline",
          "type": "uint256"
        }
      ],
      "name": "silence",
      "outputs": [],
      "stateMutability": "nonpayable",
      "type": "function"
    },
    {
      "inputs": [],
      "name": "token",
      "outputs": [
        {
          "internalType": "address",
          "name": "",
          "type": "address"
        }
      ],
      "stateMutability": "view",
      "type": "function"
    },
    {
      "inputs": [
        {
          "internalType": "address",
          "name": "newOwner",
          "type": "address"
        }
      ],
      "name": "transferOwnership",
      "outputs": [],
      "stateMutability": "nonpayable",
      "type": "function"
    },
    {
      "inputs": [
        {
          "internalType": "address",
          "name": "",
          "type": "address"
        }
      ],
      "name": "turbineBal",
      "outputs": [
        {
          "internalType": "uint256",
          "name": "",
          "type": "uint256"
        }
      ],
      "stateMutability": "view",
      "type": "function"
    },
    {
      "inputs": [],
      "name": "usdt",
      "outputs": [
        {
          "internalType": "address",
          "name": "",
          "type": "address"
        }
      ],
      "stateMutability": "view",
      "type": "function"
    },
    {
      "inputs": [],
      "name": "vestingTerm",
      "outputs": [
        {
          "internalType": "uint256",
          "name": "",
          "type": "uint256"
        }
      ],
      "stateMutability": "view",
      "type": "function"
    }
  ],
  "bytecode": "0x608060405234801561001057600080fd5b506119ca806100206000396000f3fe608060405234801561001057600080fd5b506004361061012c5760003560e01c80638da5cb5b116100ad578063c91aa6ac11610071578063c91aa6ac14610240578063cf756fdf14610253578063f2fde38b14610266578063f887ea4014610279578063fc0c546a146102815761012c565b80638da5cb5b14610202578063b41315571461020a578063ba176a9a1461021d578063bffc7b0c14610225578063c45a0155146102385761012c565b80635638f1f3116100f45780635638f1f3146101ac5780635c975abb146101bf5780636e979c6a146101c7578063715018a6146101da578063780ce197146101e25761012c565b80630835fe47146101315780630c5520d91461015a5780632f48ab7d146101645780633fd8cc4e1461017957806346a73fb114610199575b600080fd5b61014461013f3660046114d8565b610289565b6040516101519190611744565b60405180910390f35b610162610326565b005b61016c61039c565b60405161015191906116f3565b61018c6101873660046114d8565b6103ab565b60405161015191906117a8565b6101626101a736600461158b565b6103c0565b6101626101ba366004611560565b6103d0565b61018c6105df565b61018c6101d5366004611560565b6105e8565b610162610672565b6101f56101f03660046114d8565b610730565b60405161015191906118a1565b61016c610742565b6101f56102183660046114d8565b610751565b6101f561076c565b6101f5610233366004611680565b610772565b61016c610895565b61018c61024e366004611560565b6108a4565b610162610261366004611510565b61097b565b6101626102743660046114d8565b610aff565b61016c610c14565b61016c610c23565b6001600160a01b0381166000908152609960209081526040808320805482518185028101850190935280835260609492939192909184015b8282101561031b5783829060005260206000209060040201604051806080016040529081600082015481526020016001820154815260200160028201548152602001600382015481525050815260200190600101906102c1565b505050509050919050565b61032e610c32565b6001600160a01b031661033f610742565b6001600160a01b03161461039a576040805162461bcd60e51b815260206004820181905260248201527f4f776e61626c653a2063616c6c6572206973206e6f7420746865206f776e6572604482015290519081900360640190fd5b565b609a546001600160a01b031681565b60986020526000908152604090205460ff1681565b6103cb838383610c36565b505050565b6001600160a01b038216600090815260996020526040902054156105db576103f66114b0565b6001600160a01b038316600090815260996020526040902080548390811061041a57fe5b90600052602060002090600402016040518060800160405290816000820154815260200160018201548152602001600282015481526020016003820154815250509050600081602001511161048a5760405162461bcd60e51b81526004016104819061183d565b60405180910390fd5b600061049684846105e8565b9050806104b55760405162461bcd60e51b81526004016104819061186a565b80156105d8576001600160a01b03841660009081526099602052604090208054849081106104df57fe5b600091825260208083206004909202909101828155600181018390556002810183905560030182905560408401519084015161051a9161106c565b609b5460405163a9059cbb60e01b81529192506001600160a01b03169063a9059cbb9061054d908890859060040161172b565b602060405180830381600087803b15801561056757600080fd5b505af115801561057b573d6000803e3d6000fd5b505050506040513d601f19601f8201168201806040525081019061059f9190611660565b5060405181906001600160a01b038716907f75135db3a27c92eb3af1c25c02df0cfc5bc551da7ad4c182156c59ed7dcc471290600090a3505b50505b5050565b60655460ff1690565b60006105f26114b0565b6001600160a01b038416600090815260996020526040902080548490811061061657fe5b60009182526020808320604080516080810182526004909402909101805484526001810154928401929092526002820154908301526003015460608201819052909250610664904390611098565b609e54111595945050505050565b61067a610c32565b6001600160a01b031661068b610742565b6001600160a01b0316146106e6576040805162461bcd60e51b815260206004820181905260248201527f4f776e61626c653a2063616c6c6572206973206e6f7420746865206f776e6572604482015290519081900360640190fd5b6033546040516000916001600160a01b0316907f8be0079c531659141344cd1fd0a4f28419497f9722a3daafe3b4186f6b6457e0908390a3603380546001600160a01b0319169055565b60976020526000908152604090205481565b6033546001600160a01b031690565b6001600160a01b031660009081526097602052604090205490565b609e5481565b60408051600280825260608083018452600093909291906020830190803683375050609a5482519293506001600160a01b0316918391506000906107b257fe5b6001600160a01b039283166020918202929092010152609b548251911690829060019081106107dd57fe5b6001600160a01b039283166020918202929092010152609c546040516307c0329d60e21b81526060929190911690631f00ca749061082190879086906004016118aa565b60006040518083038186803b15801561083957600080fd5b505afa15801561084d573d6000803e3d6000fd5b505050506040513d6000823e601f3d908101601f1916820160405261087591908101906115bf565b90508060008151811061088457fe5b602002602001015192505050919050565b609d546001600160a01b031681565b609b546040516323b872dd60e01b81526000916001600160a01b0316906323b872dd906108d990339030908790600401611707565b602060405180830381600087803b1580156108f357600080fd5b505af1158015610907573d6000803e3d6000fd5b505050506040513d601f19601f8201168201806040525081019061092b9190611660565b506001600160a01b038316600081815260976020526040808220805486019055518492917fe0e6b324a3776ad47b700a65aabe77dd4a0403633b42f695fd915a5ce5e3a6bd91a350600192915050565b600054610100900460ff168061099457506109946110da565b806109a2575060005460ff16155b6109dd5760405162461bcd60e51b815260040180806020018281038252602e815260200180611967602e913960400191505060405180910390fd5b600054610100900460ff16158015610a08576000805460ff1961ff0019909116610100171660011790555b610a106110eb565b610a1861119d565b609a80546001600160a01b038088166001600160a01b031992831617909255609b8054878416908316179055609c805492861692909116821790556040805163c45a015560e01b8152905163c45a015591600480820192602092909190829003018186803b158015610a8957600080fd5b505afa158015610a9d573d6000803e3d6000fd5b505050506040513d601f19601f82011682018060405250810190610ac191906114f4565b609d80546001600160a01b0319166001600160a01b0392909216919091179055609e8290558015610af8576000805461ff00191690555b5050505050565b610b07610c32565b6001600160a01b0316610b18610742565b6001600160a01b031614610b73576040805162461bcd60e51b815260206004820181905260248201527f4f776e61626c653a2063616c6c6572206973206e6f7420746865206f776e6572604482015290519081900360640190fd5b6001600160a01b038116610bb85760405162461bcd60e51b81526004018080602001828103825260268152602001806119416026913960400191505060405180910390fd5b6033546040516001600160a01b038084169216907f8be0079c531659141344cd1fd0a4f28419497f9722a3daafe3b4186f6b6457e090600090a3603380546001600160a01b0319166001600160a01b0392909216919091179055565b609c546001600160a01b031681565b609b546001600160a01b031681565b3390565b609a546040516323b872dd60e01b81526001600160a01b03909116906323b872dd90610c6a90869030908790600401611707565b602060405180830381600087803b158015610c8457600080fd5b505af1158015610c98573d6000803e3d6000fd5b505050506040513d601f19601f82011682018060405250810190610cbc9190611660565b50609a54609c5460405163095ea7b360e01b81526001600160a01b039283169263095ea7b392610cf392911690869060040161172b565b602060405180830381600087803b158015610d0d57600080fd5b505af1158015610d21573d6000803e3d6000fd5b505050506040513d601f19601f82011682018060405250810190610d459190611660565b5060408051600280825260608083018452926020830190803683375050609a54609b5483519394506001600160a01b0391821693911691508390600090610d8857fe5b6020026020010183600181518110610d9c57fe5b6001600160a01b039384166020918202929092010152918116909152609b546040516370a0823160e01b815260009291909116906370a0823190610de49030906004016116f3565b60206040518083038186803b158015610dfc57600080fd5b505afa158015610e10573d6000803e3d6000fd5b505050506040513d601f19601f82011682018060405250810190610e349190611698565b609c54604051635c11d79560e01b81529192506001600160a01b031690635c11d79590610e6e908790600090879030908a906004016118cb565b600060405180830381600087803b158015610e8857600080fd5b505af1158015610e9c573d6000803e3d6000fd5b5050609b546040516370a0823160e01b8152600093506001600160a01b0390911691506370a0823190610ed39030906004016116f3565b60206040518083038186803b158015610eeb57600080fd5b505afa158015610eff573d6000803e3d6000fd5b505050506040513d601f19601f82011682018060405250810190610f239190611698565b6001600160a01b03871660009081526097602052604081205491925090610f4a8385611098565b11610f5e57610f598284611098565b610f78565b6001600160a01b0387166000908152609760205260409020545b6001600160a01b038816600090815260976020526040902054909150610f9e9082611098565b6001600160a01b03881660009081526097602090815260408083209390935560998152908290208251608081019093528054835291908101610fe08587611098565b815260208082018590524360409283015283546001818101865560009586528286208551600490930201918255918401519181019190915582820151600282015560609092015160039092019190915551879183916001600160a01b038b16917faf38268b77f6114a774b9861310e0e0901459cd04dbcde707ad7137ed869d50c91a450505050505050565b6000828201838110156110915760405162461bcd60e51b815260040161048190611806565b9392505050565b600061109183836040518060400160405280601e81526020017f536166654d6174683a207375627472616374696f6e206f766572666c6f77000081525061123a565b60006110e530611266565b15905090565b600054610100900460ff168061110457506111046110da565b80611112575060005460ff16155b61114d5760405162461bcd60e51b815260040180806020018281038252602e815260200180611967602e913960400191505060405180910390fd5b600054610100900460ff16158015611178576000805460ff1961ff0019909116610100171660011790555b61118061126c565b61118861130c565b801561119a576000805461ff00191690555b50565b600054610100900460ff16806111b657506111b66110da565b806111c4575060005460ff16155b6111ff5760405162461bcd60e51b815260040180806020018281038252602e815260200180611967602e913960400191505060405180910390fd5b600054610100900460ff1615801561122a576000805460ff1961ff0019909116610100171660011790555b61123261126c565b611188611405565b6000818484111561125e5760405162461bcd60e51b815260040161048191906117b3565b505050900390565b3b151590565b600054610100900460ff168061128557506112856110da565b80611293575060005460ff16155b6112ce5760405162461bcd60e51b815260040180806020018281038252602e815260200180611967602e913960400191505060405180910390fd5b600054610100900460ff16158015611188576000805460ff1961ff001990911661010017166001179055801561119a576000805461ff001916905550565b600054610100900460ff168061132557506113256110da565b80611333575060005460ff16155b61136e5760405162461bcd60e51b815260040180806020018281038252602e815260200180611967602e913960400191505060405180910390fd5b600054610100900460ff16158015611399576000805460ff1961ff0019909116610100171660011790555b60006113a3610c32565b603380546001600160a01b0319166001600160a01b038316908117909155604051919250906000907f8be0079c531659141344cd1fd0a4f28419497f9722a3daafe3b4186f6b6457e0908290a350801561119a576000805461ff001916905550565b600054610100900460ff168061141e575061141e6110da565b8061142c575060005460ff16155b6114675760405162461bcd60e51b815260040180806020018281038252602e815260200180611967602e913960400191505060405180910390fd5b600054610100900460ff16158015611492576000805460ff1961ff0019909116610100171660011790555b6065805460ff19169055801561119a576000805461ff001916905550565b6040518060800160405280600081526020016000815260200160008152602001600081525090565b6000602082840312156114e9578081fd5b81356110918161192b565b600060208284031215611505578081fd5b81516110918161192b565b60008060008060808587031215611525578283fd5b84356115308161192b565b935060208501356115408161192b565b925060408501356115508161192b565b9396929550929360600135925050565b60008060408385031215611572578182fd5b823561157d8161192b565b946020939093013593505050565b60008060006060848603121561159f578283fd5b83356115aa8161192b565b95602085013595506040909401359392505050565b600060208083850312156115d1578182fd5b825167ffffffffffffffff808211156115e8578384fd5b818501915085601f8301126115fb578384fd5b81518181111561160757fe5b8381029150611617848301611907565b8181528481019084860184860187018a1015611631578788fd5b8795505b83861015611653578051835260019590950194918601918601611635565b5098975050505050505050565b600060208284031215611671578081fd5b81518015158114611091578182fd5b600060208284031215611691578081fd5b5035919050565b6000602082840312156116a9578081fd5b5051919050565b6000815180845260208085019450808401835b838110156116e85781516001600160a01b0316875295820195908201906001016116c3565b509495945050505050565b6001600160a01b0391909116815260200190565b6001600160a01b039384168152919092166020820152604081019190915260600190565b6001600160a01b03929092168252602082015260400190565b602080825282518282018190526000919060409081850190868401855b8281101561179b57815180518552868101518786015285810151868601526060908101519085015260809093019290850190600101611761565b5091979650505050505050565b901515815260200190565b6000602080835283518082850152825b818110156117df578581018301518582016040015282016117c3565b818111156117f05783604083870101525b50601f01601f1916929092016040019392505050565b6020808252601b908201527f536166654d6174683a206164646974696f6e206f766572666c6f770000000000604082015260600190565b60208082526013908201527227379039b4b632b731b2903130b630b731b29760691b604082015260600190565b60208082526018908201527f53696c656e742074696d65206e6f7420726561636865642e0000000000000000604082015260600190565b90815260200190565b6000838252604060208301526118c360408301846116b0565b949350505050565b600086825285602083015260a060408301526118ea60a08301866116b0565b6001600160a01b0394909416606083015250608001529392505050565b60405181810167ffffffffffffffff8111828210171561192357fe5b604052919050565b6001600160a01b038116811461119a57600080fdfe4f776e61626c653a206e6577206f776e657220697320746865207a65726f2061646472657373496e697469616c697a61626c653a20636f6e747261637420697320616c726561647920696e697469616c697a6564a2646970667358221220cb7139ab58abca27dbf16b24ad8c309dba8d17e27a4e1acf0409189ad28bd61f64736f6c63430007050033",
  "linkReferences": {},
  "deployedLinkReferences": {}
}